:020000040000FA
:10000000000002289030AE000130AF0080300000C8
:1000100000000C210000000083120000C4002F0823
:10002000C3009230C5000130C600831200004308AF
:10003000C7004408C800FF30C307031CC4034808B6
:10004000470403199A2804304507C700C801C80DA2
:100050004608C8074708AE004808AF0080300000D7
:1000600000000C210000000083120000CA002F08CD
:10007000C9004508AE004608AF008030000000000F
:100080000C210000000083120000CC00C8002F08E3
:10009000C700CB0002304507C700C801C80D46089D
:1000A000C8074708AE004808AF00803000000000D5
:1000B0000C210000000083120000C800CE002F08B1
:1000C000CD00C700831200004908CD004A08CE00C9
:1000D000FF30C907031CCA034E084D0403199328B7
:1000E0004B08AE004C08AF00803000000000F92043
:1000F0000000000083120000CD00470883120313A4
:100100008400831383120000481883174D0883125C
:100110000313800083120000CB0A0319CC0AC70A1C
:100120000319C80A6228063083120000C5070318A5
:10013000C60A15280000000054290800BB002F083B
:10014000BA002E08BD002D08BC00BE01BF013F084B
:10015000803E803E031DAE2808303E020318F7287B
:100160003B08C1003A08C0003E08BE1BC028003C46
:100170000319C628C10CC00C013E031CBA28C628AE
:100180000310C00DC10D013E031CC1284008C20070
:10019000420C0318CD2883120510031CD1288312AA
:1001A00005143D08C1003C08C0003E08BE1BE12804
:1001B000003C0319E728C10CC00C013E031CDB28DE
:1001C000E7280310C00DC10D013E031CE2284008C2
:1001D000C200420C0318EE2883120512031CF228F9
:1001E000831205169E21BE0A0319BF0AA728B5214E
:1001F0000800003A03190029803A0319072900343E
:100200002E08840083132F188317000808002F0876
:100210008A002E0882000800003A03191429803A47
:1002200003191E29AF0100342E08840083132F18F0
:1002300083170008AF00840A0008080000000000CF
:100240000721AD00AE0FAF03AF0A00000000072189
:10025000AC002D08AF002C080800B3002F08B20036
:10026000B401B50133083502031D382932083402C0
:1002700003185329FB30B6000430B700FF303607AF
:10028000B800FF30B90037080318370FB90738082E
:10029000B6003908B70039083804031D3E29B40AEE
:1002A0000319B50A322908008221F03083169F0510
:1002B00007308312990071215908B0005A08B10023
:1002C0003008013A031D70293108003A031D7029D6
:1002D0005B30AD000030AE000630AF0000309E2035
:1002E0000800D901DA010530AF0000302D2183125A
:1002F00085197D290130D900DA010530AF000030C1
:100300002D21080083129F0183169F01073083125D
:100310009900831699010830850083128501080031
:1003200002340034AB3401344F3400340A34003426
:10033000BE3401345B3400340134003483120515BB
:100340000A30AF0000302D21831205110A30AF00B2
:1003500000302D2108003F3406345B344F346634BE
:100360006D347D3407347F346734831285140A304A
:0E037000AF0000302D218312851008000034EC
:00000001FF
