:020000040000FA
:1000000000000228C030AE000130AF008030000098
:10001000000078210000000083120000C5002F08B6
:10002000C400C230C6000130C7008312000044087B
:10003000C8004508C900FF30C407031CC5034908B0
:10004000480403199A2804304607C800C901C90D9D
:100050004708C9074808AE004908AF0080300000D3
:10006000000078210000000083120000CB002F0860
:10007000CA004608AE004708AF008030000000000C
:1000800078210000000083120000CD00C9002F0875
:10009000C800CC0002304607C800C901C90D470896
:1000A000C9074808AE004908AF00803000000000D2
:1000B00078210000000083120000C900CF002F0843
:1000C000CE00C800831200004A08CE004B08CF00C3
:1000D000FF30CA07031CCB034F084E0403199328B3
:1000E0004C08AE004D08AF008030000000006521D4
:1000F0000000000083120000CE00480883120313A2
:100100008400831383120000491883174E0883125A
:100110000313800083120000CC0A0319CD0AC80A19
:100120000319C90A6228063083120000C6070318A3
:10013000C70A1528000000009E280800EE21B00123
:10014000B10100303102031DA7280430300203182A
:10015000BF28B20183128519B20A3208013A031D81
:10016000BC285B30AD000030AE000630AF00003080
:100170000A21B00A0319B10A83128511A12859086E
:10018000B000B100B2013108AD000030AE0031085E
:10019000AF0000300A210030AD000030AE0000306A
:1001A000AF0000300A210A30AF0000309921590811
:1001B000B000B100B2013108AD000030AE0031082E
:1001C000AF0000300A210030AD000030AE0000303A
:1001D000AF0000300A210A30AF00003099215908E1
:1001E000B000B100B2013108AD000030AE003108FE
:1001F000AF0000300A210030AD000030AE0000300A
:10020000AF0000300A210A30AF000030992183127C
:1002100085010800BC002F08BB002E08BE002D0879
:10022000BD00BF01C0014008803E803E031D1A2969
:1002300008303F02031863293C08C2003B08C10094
:100240003F08BF1B2C29003C03193229C20CC10CEA
:10025000013E031C262932290310C10DC20D013EA7
:10026000031C2D294108C300430C031839298312AC
:100270000510031C3D29831205143E08C2003D08E9
:10028000C1003F08BF1B4D29003C03195329C20C74
:10029000C10C013E031C472953290310C10DC20D97
:1002A000013E031C4E294108C300430C03185A2980
:1002B00083120512031C5E2983120516CE21BF0A84
:1002C0000319C00A1329E5210800003A03196C2913
:1002D000803A0319732900342E08840083132F18E1
:1002E0008317000808002F088A002E0882000800E3
:1002F000003A03198029803A03198A29AF01003492
:100300002E08840083132F1883170008AF00840A77
:1003100000080800000000007321AD00AE0FAF031D
:10032000AF0A000000007321AC002D08AF002C08BC
:100330000800B4002F08B300B501B6013408360236
:10034000031DA429330835020318BF29FB30B70069
:100350000430B800FF303707B900FF30BA00380862
:100360000318380FBA073908B7003A08B8003A0836
:100370003904031DAA29B50A0319B60A9E290800E3
:1003800002340034DB340134503400340A34003495
:10039000F63401345C340034013400348312051522
:1003A0000A30AF0000309921831205110A30AF00E6
:1003B0000030992108003F3406345B344F346634F2
:1003C0006D347D3407347F346734831285140A30EA
:1003D000AF00003099218312851008000830831681
:0E03E00085008312850183169F0108000034FA
:00000001FF
