:020000040000FA
:1000000000000228B830AE000130AF0080300000A0
:10001000000070210000000083120000C5002F08BE
:10002000C400BA30C6000130C70083120000440883
:10003000C8004508C900FF30C407031CC5034908B0
:10004000480403199A2804304607C800C901C90D9D
:100050004708C9074808AE004908AF0080300000D3
:10006000000070210000000083120000CB002F0868
:10007000CA004608AE004708AF008030000000000C
:1000800070210000000083120000CD00C9002F087D
:10009000C800CC0002304607C800C901C90D470896
:1000A000C9074808AE004908AF00803000000000D2
:1000B00070210000000083120000C900CF002F084B
:1000C000CE00C800831200004A08CE004B08CF00C3
:1000D000FF30CA07031CCB034F084E0403199328B3
:1000E0004C08AE004D08AF008030000000005D21DC
:1000F0000000000083120000CE00480883120313A2
:100100008400831383120000491883174E0883125A
:100110000313800083120000CC0A0319CD0AC80A19
:100120000319C90A6228063083120000C6070318A3
:10013000C70A1528000000009E280800E621B0012B
:10014000B10100303102031DA7280430300203182A
:10015000B728B20183128519B20A3208013A031D89
:10016000B428B00A0319B10A83128511A1285908CD
:10017000B000B100B2013108AD000030AE0031086E
:10018000AF00003002210030AD000030AE00003082
:10019000AF00003002210A30AF0000309121590831
:1001A000B000B100B2013108AD000030AE0031083E
:1001B000AF00003002210030AD000030AE00003052
:1001C000AF00003002210A30AF0000309121590801
:1001D000B000B100B2013108AD000030AE0031080E
:1001E000AF00003002210030AD000030AE00003022
:1001F000AF00003002210A30AF000030912183129D
:1002000085010800BC002F08BB002E08BE002D0889
:10021000BD00BF01C0014008803E803E031D122981
:1002200008303F0203185B293C08C2003B08C100AC
:100230003F08BF1B2429003C03192A29C20CC10C0A
:10024000013E031C1E292A290310C10DC20D013EC7
:10025000031C25294108C300430C031831298312CC
:100260000510031C3529831205143E08C2003D0801
:10027000C1003F08BF1B4529003C03194B29C20C94
:10028000C10C013E031C3F294B290310C10DC20DB7
:10029000013E031C46294108C300430C03185229A0
:1002A00083120512031C562983120516C621BF0AA4
:1002B0000319C00A0B29DD210800003A031964293B
:1002C000803A03196B2900342E08840083132F18F9
:1002D0008317000808002F088A002E0882000800F3
:1002E000003A03197829803A03198229AF010034B2
:1002F0002E08840083132F1883170008AF00840A88
:1003000000080800000000006B21AD00AE0FAF0335
:10031000AF0A000000006B21AC002D08AF002C08D4
:100320000800B4002F08B300B501B6013408360246
:10033000031D9C29330835020318B729FB30B70089
:100340000430B800FF303707B900FF30BA00380872
:100350000318380FBA073908B7003A08B8003A0846
:100360003904031DA229B50A0319B60A9629080003
:1003700002340034D3340134503400340A340034AD
:10038000EE3401345A34003401340034831205153C
:100390000A30AF0000309121831205110A30AF00FE
:1003A0000030912108003F3406345B344F3466340A
:1003B0006D347D3407347F346734831285140A30FA
:1003C000AF00003091218312851008000830831699
:0E03D00085008312850183169F01080000340A
:00000001FF
