:020000040000FA
:10000000000002280930AE000230AF00803000004E
:100010000000C1210000000083120000C9002F0869
:10002000C8000B30CA000230CB0083120000480821
:10003000CC004908CD00FF30C807031CC9034D0898
:100040004C0403199A2804304A07CC00CD01CD0D89
:100050004B08CD074C08AE004D08AF0080300000C3
:100060000000C1210000000083120000CF002F0813
:10007000CE004A08AE004B08AF0080300000000000
:10008000C1210000000083120000D100CD002F0824
:10009000CC00D00002304A07CC00CD01CD0D4B087A
:1000A000CD074C08AE004D08AF00803000000000C6
:1000B000C1210000000083120000CD00D3002F08F2
:1000C000D200CC00831200004E08D2004F08D300AB
:1000D000FF30CE07031CCF035308520403199328A3
:1000E0005008AE005108AF00803000000000AE2183
:1000F0000000000083120000D2004C08831203139A
:1001000084008313831200004D1883175208831252
:100110000313800083120000D00A0319D10ACC0A0D
:100120000319CD0A6228063083120000CA0703189B
:10013000CB0A1528000000002A290800C0002F085B
:10014000BF002E08C2002D08C1003F080D3A031D54
:10015000B2284008003A031DB228BF01C001C30104
:10016000C401D6283F08543EC5000030C6004008F0
:100170000318400FC60745088400831346188317E9
:100180000008C700BF00C0014108543EC70000304E
:10019000C50042080318420FC507470884008313AF
:1001A000451883170008C100C300C401C101C20182
:1001B0004208803E803E031DDF28083041020318BC
:1001C00028294008C6003F08C5004108C11BF12886
:1001D000003C0319F728C60CC50C013E031CEB2894
:1001E000F7280310C50DC60D013E031CF228450873
:1001F000C700470C0318FE2883120510031C0229B0
:10020000831205144408C6004308C5004108C11BF9
:100210001229003C03191829C60CC50C013E031C09
:100220000C2918290310C50DC60D013E031C132906
:100230004508C700470C03181F2983120512031C29
:100240002329831205161722C10A0319C20AD828C6
:100250002E2208003722B001B1010730B200B301ED
:10026000B401B50100303502031D382905303402D0
:1002700003186C2900303102031D40290930300277
:1002800003184629B00A0319B10A4829B001B1017F
:1002900000303302031D4E2909303202031854295D
:1002A000B20A0319B30A5629B201B301B601831287
:1002B0008519B60A3608013A031D69293208AD00CE
:1002C0003308AE003008AF0031089E20B40A03198D
:1002D000B50A8312851132293230AF000030E22195
:1002E000831285010D30AD000030AE000D30AF003F
:1002F00000309E200930AD000030AE000930AF0064
:1003000000309E200D30AD000030AE000D30AF004B
:1003100000309E200930AD000030AE000930AF0043
:1003200000309E200D30AD000030AE000D30AF002B
:1003300000309E200930AD000030AE000930AF0023
:1003400000309E200D30AD000030AE000D30AF000B
:1003500000309E20B401B50132290800003A03198B
:10036000B529803A0319BC2900342E088400831370
:100370002F188317000808002F088A002E08820013
:100380000800003A0319C929803A0319D329AF019B
:1003900000342E08840083132F1883170008AF0041
:1003A000840A0008080000000000BC21AD00AE0F68
:1003B000AF03AF0A00000000BC21AC002D08AF0065
:1003C0002C080800B8002F08B700B901BA01380896
:1003D0003A02031DED29370839020318082AFB30B9
:1003E000BB000430BC00FF303B07BD00FF30BE0047
:1003F0003C0803183C0FBE073D08BB003E08BC008C
:100400003E083D04031DF329B90A0319BA0AE72976
:1004100008000234003424340234543400340A34E2
:1004200000343F3402345E3400340134003483122B
:1004300005150A30AF000030E221831205110A30A1
:10044000AF000030E22108003F3406345B344F3403
:1004500066346D347D3407347F34673483128514F9
:100460000A30AF000030E221831285100800083006
:10047000831685008312850183169F0108000034CE
:00000001FF
